:100000000C9434000C9486000C949D000C945100C8
:100010000C9451000C9451000C9451000C9451001C
:100020000C9451000C9451000C9451000C9451000C
:100030000C9451000C9451000C9451000C945100FC
:100040000C9430020C9451000C9451000C9451000B
:100050000C9451000C9451000C9451000C945100DC
:100060000C94F3000C94510011241FBECFEFD4E088
:10007000DEBFCDBF11E0A0E0B1E0EAE0F5E002C0F4
:1000800005900D92A230B107D9F721E0A2E0B1E0CE
:1000900001C01D92AD30B207E1F70E940B020C9433
:1000A00083020C9400005A9A52985B9A5398E9E69E
:1000B000F0E080818360808380818C6080830895FC
:1000C0008091000108958DB383608DBB1092000173
:1000D00008958DB38C7F8DBB81E0809300010895DE
:1000E0002091040130910501109205011092040144
:1000F000822F932F089520910201309103011092D5
:10010000030110920201822F932F08951F920F92E4
:100110000FB60F9211248F939F93809104019091B9
:100120000501019690930501809304019F918F91A1
:100130000F900FBE0F901F9018951F920F920FB641
:100140000F9211248F939F9380910201909103014C
:10015000019690930301809302019F918F910F90DC
:100160000FBE0F901F901895409838984198399875
:1001700042983A982FEF80E792E0215080409040DB
:10018000E1F700C0000026B186B196B121708270FF
:10019000822B80659470892B880F8093BA0087B179
:1001A0008F7C87B9E9EBF0E080818D7F808388E4E4
:1001B0008093B80085EC8093BC00089585EC809313
:1001C000BC00089585E88093BC00089585EC809379
:1001D000BC00089585ED8093BC00ECEBF0E08081DD
:1001E00084FDFDCF08951F920F920FB60F92112438
:1001F0002F933F934F935F936F937F938F939F932F
:10020000AF93BF93CF93EF93FF938091B900803A60
:1002100009F4DBC078F4803609F495C020F4882313
:1002200009F4D8C0DAC0803809F493C0883809F0DE
:10023000D4C0C8C0883B61F020F4883A09F0CDC032
:1002400007C0803C09F47CC0883C09F0C6C078C077
:1002500080910101823079F130F4882361F081309E
:1002600009F069C01CC0843009F445C0A0F1853094
:1002700009F061C050C00E942102C1E08111C0E0BC
:100280000E946000811101C0C260C093BB008091D8
:1002900001018F5F809301010E94DE00A0C00E94D7
:1002A0002D028093BB00809101018F5F809301013B
:1002B0000E94DE0094C00E9470008093060190931B
:1002C00007018093BB00809101018F5F8093010142
:1002D0000E94DE0084C0809107018093BB001092D1
:1002E000070110920601809101018F5F8093010147
:1002F0000E94DE0074C00E947B00809308019093EE
:1003000009018093BB00809101018F5F80930101FF
:100310000E94DE0064C0809109018093BB001092AE
:10032000090110920801809101018F5F8093010102
:100330000E94E20054C01092BB000E94E2004FC035
:100340000E94DE004CC08FEF809301010E94DE000E
:1003500046C0C091BB00809101018F3F29F4C0933A
:1003600001010E94DE003BC0882319F0813039F57D
:1003700019C0C0FF03C080E00E941E02C1FF03C07D
:1003800081E00E941E02C2FD0E946300C3FD0E9424
:100390006900C4FD0E947F02C5FD0E9481020E9487
:1003A000E2001DC08C2F0E942402CC2319F00E9471
:1003B0007B0202C00E947D020E94E20010C00E94E7
:1003C000E2000DC00E94E2000AC00E94EA000E9402
:1003D000E60005C00E94EA0002C00E94E600FF910C
:1003E000EF91CF91BF91AF919F918F917F916F913D
:1003F0005F914F913F912F910F900FBE0F901F90E3
:1004000018950E940E020E9453000E9476020E94DC
:10041000B400789408950E940102FFCF5E98569A26
:100420002898209A299A219A16BCEEE6F0E080815D
:100430008160808385B5826085BD089580930A01BF
:10044000089580910A010895893C20F088EC8093FA
:100450000B01089580930B01089580910B0108957D
:100460001F920F920FB60F9211248F9380910B0160
:100470008823A1F180910A01811102C0289805C04A
:1004800080910A01813009F45E9880910C018823E3
:1004900091F080910A01811102C05E9A05C080919D
:1004A0000A01813009F4289A10920C0180910B0105
:1004B000809586BD15C080910A01811102C05E98A9
:1004C00005C080910A01813009F4289881E0809369
:1004D0000C0180910B01895C86BD02C05E98289852
:1004E0008F910F900FBE0F901F9018955F9A579A9B
:1004F0005D9A559A08955F9808955F9A08955D985A
:0A05000008955D9A0895F894FFCF66
:02050A0001FFEF
:00000001FF
